{
  "contractName": "Factory",
  "abi": [
    {
      "constant": true,
      "inputs": [],
      "name": "owner",
      "outputs": [
        {
          "name": "",
          "type": "address"
        }
      ],
      "payable": false,
      "stateMutability": "view",
      "type": "function"
    },
    {
      "constant": true,
      "inputs": [
        {
          "name": "",
          "type": "uint256"
        }
      ],
      "name": "channels",
      "outputs": [
        {
          "name": "",
          "type": "address"
        }
      ],
      "payable": false,
      "stateMutability": "view",
      "type": "function"
    },
    {
      "inputs": [],
      "payable": false,
      "stateMutability": "nonpayable",
      "type": "constructor"
    },
    {
      "anonymous": false,
      "inputs": [
        {
          "indexed": true,
          "name": "ContractAddrs",
          "type": "address"
        },
        {
          "indexed": true,
          "name": "NearEnd",
          "type": "address"
        },
        {
          "indexed": true,
          "name": "FarEnd",
          "type": "address"
        },
        {
          "indexed": false,
          "name": "value",
          "type": "uint256[2]"
        },
        {
          "indexed": false,
          "name": "id",
          "type": "uint256"
        },
        {
          "indexed": false,
          "name": "endDate",
          "type": "uint256"
        }
      ],
      "name": "channelProcessed",
      "type": "event"
    },
    {
      "anonymous": false,
      "inputs": [
        {
          "indexed": true,
          "name": "_previousOwner",
          "type": "address"
        },
        {
          "indexed": true,
          "name": "_newOwner",
          "type": "address"
        }
      ],
      "name": "OwnershipTransferred",
      "type": "event"
    },
    {
      "constant": false,
      "inputs": [
        {
          "name": "_farEnd",
          "type": "address"
        },
        {
          "name": "_daysOpen",
          "type": "uint256"
        }
      ],
      "name": "createChannel",
      "outputs": [],
      "payable": true,
      "stateMutability": "payable",
      "type": "function"
    },
    {
      "constant": false,
      "inputs": [],
      "name": "suicideContract",
      "outputs": [],
      "payable": false,
      "stateMutability": "nonpayable",
      "type": "function"
    }
  ],
  "bytecode": "0x608060405234801561001057600080fd5b50336000806101000a81548173ffffffffffffffffffffffffffffffffffffffff021916908373ffffffffffffffffffffffffffffffffffffffff1602179055506134f0806100606000396000f300608060405260043610610062576000357c0100000000000000000000000000000000000000000000000000000000900463ffffffff1680633abc2106146100675780638da5cb5b1461007e578063bb510a77146100d5578063e5949b5d14610115575b600080fd5b34801561007357600080fd5b5061007c610182565b005b34801561008a57600080fd5b50610093610217565b604051808273ffffffffffffffffffffffffffffffffffffffff1673ffffffffffffffffffffffffffffffffffffffff16815260200191505060405180910390f35b610113600480360381019080803573ffffffffffffffffffffffffffffffffffffffff1690602001909291908035906020019092919050505061023c565b005b34801561012157600080fd5b50610140600480360381019080803590602001909291905050506105d8565b604051808273ffffffffffffffffffffffffffffffffffffffff1673ffffffffffffffffffffffffffffffffffffffff16815260200191505060405180910390f35b6000809054906101000a900473ffffffffffffffffffffffffffffffffffffffff1673ffffffffffffffffffffffffffffffffffffffff163373ffffffffffffffffffffffffffffffffffffffff161415156101dd57600080fd5b6000809054906101000a900473ffffffffffffffffffffffffffffffffffffffff1673ffffffffffffffffffffffffffffffffffffffff16ff5b6000809054906101000a900473ffffffffffffffffffffffffffffffffffffffff1681565b60003433848461024a610616565b808473ffffffffffffffffffffffffffffffffffffffff1673ffffffffffffffffffffffffffffffffffffffff1681526020018373ffffffffffffffffffffffffffffffffffffffff1673ffffffffffffffffffffffffffffffffffffffff16815260200182815260200193505050506040518091039082f0801580156102d5573d6000803e3d6000fd5b509050905060018190806001815401808255809150509060018203906000526020600020016000909192909190916101000a81548173ffffffffffffffffffffffffffffffffffffffff021916908373ffffffffffffffffffffffffffffffffffffffff160217905550508273ffffffffffffffffffffffffffffffffffffffff163373ffffffffffffffffffffffffffffffffffffffff168273ffffffffffffffffffffffffffffffffffffffff167f785e688ea612fbdc61770243a0bb8993ff4fa1b80ac1679de5f5a10befbacb8a8473ffffffffffffffffffffffffffffffffffffffff1663547b45796040518163ffffffff167c01000000000000000000000000000000000000000000000000000000000281526004016040805180830381600087803b15801561040957600080fd5b505af115801561041d573d6000803e3d6000fd5b505050506040513d601f19601f82011682018060405250604081101561044257600080fd5b81019080919050508573ffffffffffffffffffffffffffffffffffffffff1663448e5fd06040518163ffffffff167c0100000000000000000000000000000000000000000000000000000000028152600401602060405180830381600087803b1580156104ae57600080fd5b505af11580156104c2573d6000803e3d6000fd5b505050506040513d60208110156104d857600080fd5b81019080805190602001909291905050508673ffffffffffffffffffffffffffffffffffffffff1663ee70a1dd6040518163ffffffff167c0100000000000000000000000000000000000000000000000000000000028152600401602060405180830381600087803b15801561054d57600080fd5b505af1158015610561573d6000803e3d6000fd5b505050506040513d602081101561057757600080fd5b81019080805190602001909291905050506040518084600260200280838360005b838110156105b3578082015181840152602081019050610598565b50505050905001838152602001828152602001935050505060405180910390a4505050565b6001818154811015156105e757fe5b906000526020600020016000915054906101000a900473ffffffffffffffffffffffffffffffffffffffff1681565b604051612e9e80610627833901905600608060405260405160608062002e9e8339810180604052810190808051906020019092919080519060200190929190805190602001909291905050508060408051908101604052808573ffffffffffffffffffffffffffffffffffffffff1673ffffffffffffffffffffffffffffffffffffffff1681526020018473ffffffffffffffffffffffffffffffffffffffff1673ffffffffffffffffffffffffffffffffffffffff16815250806000906002620000bc929190620001a0565b505062015180810242016002819055505034600360000160008573ffffffffffffffffffffffffffffffffffffffff1673ffffffffffffffffffffffffffffffffffffffff16815260200190815260200160002081905550346005819055508173ffffffffffffffffffffffffffffffffffffffff168373ffffffffffffffffffffffffffffffffffffffff167f5d4d283cd232ce945ab74a5babce69f3acd389a9f949e54cbb0a4efd123a301f3460036001015460025460405180848152602001838152602001828152602001935050505060405180910390a350505062000268565b82600281019282156200020f579160200282015b828111156200020e5782518260006101000a81548173ffffffffffffffffffffffffffffffffffffffff021916908373ffffffffffffffffffffffffffffffffffffffff16021790555091602001919060010190620001b4565b5b5090506200021e919062000222565b5090565b6200026591905b808211156200026157600081816101000a81549073ffffffffffffffffffffffffffffffffffffffff02191690555060010162000229565b5090565b90565b612c2680620002786000396000f3006080604052600436106100c5576000357c0100000000000000000000000000000000000000000000000000000000900463ffffffff168063025e7c27146100ca57806328a72f22146101375780633af84f1214610166578063448e5fd014610191578063547b4579146101bc578063597e1fb51461020f57806367fe5a0c1461023e578063b4d1c4851461026d578063b738d7a014610284578063e88f6210146102df578063ed40cabe146102e9578063ee70a1dd14610503578063fb47b01b1461052e575b600080fd5b3480156100d657600080fd5b506100f560048036038101908080359060200190929190505050610748565b604051808273ffffffffffffffffffffffffffffffffffffffff1673ffffffffffffffffffffffffffffffffffffffff16815260200191505060405180910390f35b34801561014357600080fd5b5061016460048036038101908080351515906020019092919050505061077d565b005b34801561017257600080fd5b5061017b610e55565b6040518082815260200191505060405180910390f35b34801561019d57600080fd5b506101a6610e5b565b6040518082815260200191505060405180910390f35b3480156101c857600080fd5b506101d1610e68565b6040518082600260200280838360005b838110156101fc5780820151818401526020810190506101e1565b5050505090500191505060405180910390f35b34801561021b57600080fd5b50610224610f6e565b604051808215151515815260200191505060405180910390f35b34801561024a57600080fd5b50610253610f81565b604051808215151515815260200191505060405180910390f35b34801561027957600080fd5b50610282610f94565b005b34801561029057600080fd5b506102c5600480360381019080803573ffffffffffffffffffffffffffffffffffffffff16906020019092919050505061153d565b604051808215151515815260200191505060405180910390f35b6102e761155d565b005b3480156102f557600080fd5b50610501600480360381019080806040019060028060200260405190810160405280929190826002602002808284378201915050505050919291929080604001906002806020026040519081016040528092919082600260200280828437820191505050505091929192908035600019169060200190929190803560ff169060200190929190806040019060028060200260405190810160405280929190826002602002808284378201915050505050919291929080359060200190820180359060200190808060200260200160405190810160405280939291908181526020018383602002808284378201915050505050509192919290803590602001908201803590602001908080602002602001604051908101604052809392919081815260200183836020028082843782019150505050505091929192908035906020019082018035906020019080806020026020016040519081016040528093929190818152602001838360200280828437820191505050505050919291929080359060200190820180359060200190808060200260200160405190810160405280939291908181526020018383602002808284378201915050505050509192919290803590602001908201803590602001908080602002602001604051908101604052809392919081815260200183836020028082843782019150505050505091929192905050506117ab565b005b34801561050f57600080fd5b50610518611c6d565b6040518082815260200191505060405180910390f35b34801561053a57600080fd5b50610746600480360381019080806040019060028060200260405190810160405280929190826002602002808284378201915050505050919291929080604001906002806020026040519081016040528092919082600260200280828437820191505050505091929192908035600019169060200190929190803560ff16906020019092919080604001906002806020026040519081016040528092919082600260200280828437820191505050505091929192908035906020019082018035906020019080806020026020016040519081016040528093929190818152602001838360200280828437820191505050505050919291929080359060200190820180359060200190808060200260200160405190810160405280939291908181526020018383602002808284378201915050505050509192919290803590602001908201803590602001908080602002602001604051908101604052809392919081815260200183836020028082843782019150505050505091929192908035906020019082018035906020019080806020026020016040519081016040528093929190818152602001838360200280828437820191505050505050919291929080359060200190820180359060200190808060200260200160405190810160405280939291908181526020018383602002808284378201915050505050509192919290505050611c73565b005b60008160028110151561075757fe5b016000915054906101000a900473ffffffffffffffffffffffffffffffffffffffff1681565b60008060028110151561078c57fe5b0160009054906101000a900473ffffffffffffffffffffffffffffffffffffffff1673ffffffffffffffffffffffffffffffffffffffff163373ffffffffffffffffffffffffffffffffffffffff1614806108435750600060016002811015156107f257fe5b0160009054906101000a900473ffffffffffffffffffffffffffffffffffffffff1673ffffffffffffffffffffffffffffffffffffffff163373ffffffffffffffffffffffffffffffffffffffff16145b151561084e57600080fd5b600660019054906101000a900460ff16151561086957600080fd5b600660009054906101000a900460ff1615151561088557600080fd5b6201518060025401421115151561089b57600080fd5b8080156108f95750600760006108b03361212a565b73ffffffffffffffffffffffffffffffffffffffff1673ffffffffffffffffffffffffffffffffffffffff16815260200190815260200160002060009054906101000a900460ff165b15610da8576001600660006101000a81548160ff0219169083151502179055506000600160028110151561092957fe5b0160009054906101000a900473ffffffffffffffffffffffffffffffffffffffff1673ffffffffffffffffffffffffffffffffffffffff1660008060028110151561097057fe5b0160009054906101000a900473ffffffffffffffffffffffffffffffffffffffff1673ffffffffffffffffffffffffffffffffffffffff167f9254b83d635c083b09ad98d06608d55c4b6419984db1e47e8aac7ff26407c807600360000160008060006002811015156109df57fe5b0160009054906101000a900473ffffffffffffffffffffffffffffffffffffffff1673ffffffffffffffffffffffffffffffffffffffff1673ffffffffffffffffffffffffffffffffffffffff1681526020019081526020016000205460036000016000806001600281101515610a5257fe5b0160009054906101000a900473ffffffffffffffffffffffffffffffffffffffff1673ffffffffffffffffffffffffffffffffffffffff1673ffffffffffffffffffffffffffffffffffffffff1681526020019081526020016000205460036001015460405180848152602001838152602001828152602001935050505060405180910390a3600060036000016000806000600281101515610af057fe5b0160009054906101000a900473ffffffffffffffffffffffffffffffffffffffff1673ffffffffffffffffffffffffffffffffffffffff1673ffffffffffffffffffffffffffffffffffffffff168152602001908152602001600020541115610c3d57600080600281101515610b6257fe5b0160009054906101000a900473ffffffffffffffffffffffffffffffffffffffff1673ffffffffffffffffffffffffffffffffffffffff166108fc60036000016000806000600281101515610bb357fe5b0160009054906101000a900473ffffffffffffffffffffffffffffffffffffffff1673ffffffffffffffffffffffffffffffffffffffff1673ffffffffffffffffffffffffffffffffffffffff168152602001908152602001600020549081150290604051600060405180830381858888f19350505050158015610c3b573d6000803e3d6000fd5b505b600060036000016000806001600281101515610c5557fe5b0160009054906101000a900473ffffffffffffffffffffffffffffffffffffffff1673ffffffffffffffffffffffffffffffffffffffff1673ffffffffffffffffffffffffffffffffffffffff168152602001908152602001600020541115610da35760006001600281101515610cc857fe5b0160009054906101000a900473ffffffffffffffffffffffffffffffffffffffff1673ffffffffffffffffffffffffffffffffffffffff166108fc60036000016000806001600281101515610d1957fe5b0160009054906101000a900473ffffffffffffffffffffffffffffffffffffffff1673ffffffffffffffffffffffffffffffffffffffff1673ffffffffffffffffffffffffffffffffffffffff168152602001908152602001600020549081150290604051600060405180830381858888f19350505050158015610da1573d6000803e3d6000fd5b505b610e52565b3373ffffffffffffffffffffffffffffffffffffffff167fbe7d5e7834db5c15f0f063c5ac8f841091e9cbaae0b8b65f532641e66277eec882604051808215151515815260200191505060405180910390a280600760003373ffffffffffffffffffffffffffffffffffffffff1673ffffffffffffffffffffffffffffffffffffffff16815260200190815260200160002060006101000a81548160ff0219169083151502179055505b50565b60055481565b6000600360010154905090565b610e70612bd8565b604080519081016040528060036000016000806000600281101515610e9157fe5b0160009054906101000a900473ffffffffffffffffffffffffffffffffffffffff1673ffffffffffffffffffffffffffffffffffffffff1673ffffffffffffffffffffffffffffffffffffffff16815260200190815260200160002054815260200160036000016000806001600281101515610f0957fe5b0160009054906101000a900473ffffffffffffffffffffffffffffffffffffffff1673ffffffffffffffffffffffffffffffffffffffff1673ffffffffffffffffffffffffffffffffffffffff16815260200190815260200160002054815250905090565b600660009054906101000a900460ff1681565b600660019054906101000a900460ff1681565b600080600281101515610fa357fe5b0160009054906101000a900473ffffffffffffffffffffffffffffffffffffffff1673ffffffffffffffffffffffffffffffffffffffff163373ffffffffffffffffffffffffffffffffffffffff16148061105a57506000600160028110151561100957fe5b0160009054906101000a900473ffffffffffffffffffffffffffffffffffffffff1673ffffffffffffffffffffffffffffffffffffffff163373ffffffffffffffffffffffffffffffffffffffff16145b151561106557600080fd5b600660009054906101000a900460ff1615151561108157600080fd5b62015180600254014211151561109657600080fd5b6001600660006101000a81548160ff021916908315150217905550600060016002811015156110c157fe5b0160009054906101000a900473ffffffffffffffffffffffffffffffffffffffff1673ffffffffffffffffffffffffffffffffffffffff1660008060028110151561110857fe5b0160009054906101000a900473ffffffffffffffffffffffffffffffffffffffff1673ffffffffffffffffffffffffffffffffffffffff167f9254b83d635c083b09ad98d06608d55c4b6419984db1e47e8aac7ff26407c8076003600001600080600060028110151561117757fe5b0160009054906101000a900473ffffffffffffffffffffffffffffffffffffffff1673ffffffffffffffffffffffffffffffffffffffff1673ffffffffffffffffffffffffffffffffffffffff16815260200190815260200160002054600360000160008060016002811015156111ea57fe5b0160009054906101000a900473ffffffffffffffffffffffffffffffffffffffff1673ffffffffffffffffffffffffffffffffffffffff1673ffffffffffffffffffffffffffffffffffffffff1681526020019081526020016000205460036001015460405180848152602001838152602001828152602001935050505060405180910390a360006003600001600080600060028110151561128857fe5b0160009054906101000a900473ffffffffffffffffffffffffffffffffffffffff1673ffffffffffffffffffffffffffffffffffffffff1673ffffffffffffffffffffffffffffffffffffffff1681526020019081526020016000205411156113d5576000806002811015156112fa57fe5b0160009054906101000a900473ffffffffffffffffffffffffffffffffffffffff1673ffffffffffffffffffffffffffffffffffffffff166108fc6003600001600080600060028110151561134b57fe5b0160009054906101000a900473ffffffffffffffffffffffffffffffffffffffff1673ffffffffffffffffffffffffffffffffffffffff1673ffffffffffffffffffffffffffffffffffffffff168152602001908152602001600020549081150290604051600060405180830381858888f193505050501580156113d3573d6000803e3d6000fd5b505b6000600360000160008060016002811015156113ed57fe5b0160009054906101000a900473ffffffffffffffffffffffffffffffffffffffff1673ffffffffffffffffffffffffffffffffffffffff1673ffffffffffffffffffffffffffffffffffffffff16815260200190815260200160002054111561153b576000600160028110151561146057fe5b0160009054906101000a900473ffffffffffffffffffffffffffffffffffffffff1673ffffffffffffffffffffffffffffffffffffffff166108fc600360000160008060016002811015156114b157fe5b0160009054906101000a900473ffffffffffffffffffffffffffffffffffffffff1673ffffffffffffffffffffffffffffffffffffffff1673ffffffffffffffffffffffffffffffffffffffff168152602001908152602001600020549081150290604051600060405180830381858888f19350505050158015611539573d6000803e3d6000fd5b505b565b60076020528060005260406000206000915054906101000a900460ff1681565b60008060028110151561156c57fe5b0160009054906101000a900473ffffffffffffffffffffffffffffffffffffffff1673ffffffffffffffffffffffffffffffffffffffff163373ffffffffffffffffffffffffffffffffffffffff1614806116235750600060016002811015156115d257fe5b0160009054906101000a900473ffffffffffffffffffffffffffffffffffffffff1673ffffffffffffffffffffffffffffffffffffffff163373ffffffffffffffffffffffffffffffffffffffff16145b151561162e57600080fd5b600660019054906101000a900460ff1615151561164a57600080fd5b600254421115151561165b57600080fd5b6000600160028110151561166b57fe5b0160009054906101000a900473ffffffffffffffffffffffffffffffffffffffff1673ffffffffffffffffffffffffffffffffffffffff163373ffffffffffffffffffffffffffffffffffffffff161415156116c657600080fd5b6001600660016101000a81548160ff02191690831515021790555034600360000160008060016002811015156116f857fe5b0160009054906101000a900473ffffffffffffffffffffffffffffffffffffffff1673ffffffffffffffffffffffffffffffffffffffff1673ffffffffffffffffffffffffffffffffffffffff16815260200190815260200160002081905550346005600082825401925050819055507fc95c41d6ec02d78ee74be3ae1eed80a0593863d90e7dc3fdbf3efce41d2bdfa734600554604051808381526020018281526020019250505060405180910390a1565b6000806000806002811015156117bd57fe5b0160009054906101000a900473ffffffffffffffffffffffffffffffffffffffff1673ffffffffffffffffffffffffffffffffffffffff163373ffffffffffffffffffffffffffffffffffffffff16148061187457506000600160028110151561182357fe5b0160009054906101000a900473ffffffffffffffffffffffffffffffffffffffff1673ffffffffffffffffffffffffffffffffffffffff163373ffffffffffffffffffffffffffffffffffffffff16145b151561187f57600080fd5b600660019054906101000a900460ff16151561189a57600080fd5b600660009054906101000a900460ff161515156118b657600080fd5b600254421180156118ce575062015180600254014211155b15156118d957600080fd5b60001515600860003373ffffffffffffffffffffffffffffffffffffffff1673ffffffffffffffffffffffffffffffffffffffff16815260200190815260200160002060009054906101000a900460ff16151514151561193857600080fd5b6119413361212a565b91508173ffffffffffffffffffffffffffffffffffffffff168c600060028110151561196957fe5b602002015173ffffffffffffffffffffffffffffffffffffffff161480156119cf57503073ffffffffffffffffffffffffffffffffffffffff168c60016002811015156119b257fe5b602002015173ffffffffffffffffffffffffffffffffffffffff16145b15156119da57600080fd5b600a60ff16855160ff161015156119f057600080fd5b600087511115611a0f57611a088b8d89888888612270565b9050611a1f565b611a1c8b8d8787876123c0565b90505b611a6d8c6000600281101515611a3157fe5b6020020151611a3f8c6124da565b8b8b6000600281101515611a4f57fe5b60200201518c6001600281101515611a6357fe5b602002015161258b565b1515611a7857600080fd5b6005548b6000600281101515611a8a57fe5b602002015111158015611ab457506003600101548b6001600281101515611aad57fe5b6020020151115b1515611abf57600080fd5b8a6001600281101515611ace57fe5b60200201516003600101819055508a6000600281101515611aeb57fe5b6020020151600360000160008e6000600281101515611b0657fe5b602002015173ffffffffffffffffffffffffffffffffffffffff1673ffffffffffffffffffffffffffffffffffffffff168152602001908152602001600020819055508a6000600281101515611b5857fe5b602002015160055403600360000160003373ffffffffffffffffffffffffffffffffffffffff1673ffffffffffffffffffffffffffffffffffffffff16815260200190815260200160002081905550611bb487878787876125d2565b3373ffffffffffffffffffffffffffffffffffffffff167ffc3ee557fbb75d9a31dfe513271468047cc04d782c33d3109181b410ab6b81a06003600101546040518082815260200191505060405180910390a26001600860003373ffffffffffffffffffffffffffffffffffffffff1673ffffffffffffffffffffffffffffffffffffffff16815260200190815260200160002060006101000a81548160ff021916908315150217905550505050505050505050505050565b60025481565b600080600080600281101515611c8557fe5b0160009054906101000a900473ffffffffffffffffffffffffffffffffffffffff1673ffffffffffffffffffffffffffffffffffffffff163373ffffffffffffffffffffffffffffffffffffffff161480611d3c575060006001600281101515611ceb57fe5b0160009054906101000a900473ffffffffffffffffffffffffffffffffffffffff1673ffffffffffffffffffffffffffffffffffffffff163373ffffffffffffffffffffffffffffffffffffffff16145b1515611d4757600080fd5b600660019054906101000a900460ff161515611d6257600080fd5b600660009054906101000a900460ff16151515611d7e57600080fd5b6002544211151515611d8f57600080fd5b611d983361212a565b91508173ffffffffffffffffffffffffffffffffffffffff168c6000600281101515611dc057fe5b602002015173ffffffffffffffffffffffffffffffffffffffff16148015611e2657503073ffffffffffffffffffffffffffffffffffffffff168c6001600281101515611e0957fe5b602002015173ffffffffffffffffffffffffffffffffffffffff16145b1515611e3157600080fd5b600a60ff16855160ff16101515611e4757600080fd5b600087511115611e6657611e5f8b8d89888888612270565b9050611e76565b611e738b8d8787876123c0565b90505b611ec48c6000600281101515611e8857fe5b6020020151611e968c6124da565b8b8b6000600281101515611ea657fe5b60200201518c6001600281101515611eba57fe5b602002015161258b565b1515611ecf57600080fd5b6005548b6000600281101515611ee157fe5b602002015111158015611f0b57506003600101548b6001600281101515611f0457fe5b6020020151115b1515611f1657600080fd5b8a6001600281101515611f2557fe5b60200201516003600101819055508a6000600281101515611f4257fe5b6020020151600360000160008e6000600281101515611f5d57fe5b602002015173ffffffffffffffffffffffffffffffffffffffff1673ffffffffffffffffffffffffffffffffffffffff168152602001908152602001600020819055508a6000600281101515611faf57fe5b602002015160055403600360000160003373ffffffffffffffffffffffffffffffffffffffff1673ffffffffffffffffffffffffffffffffffffffff1681526020019081526020016000208190555061200b87878787876125d2565b8b600060028110151561201a57fe5b602002015173ffffffffffffffffffffffffffffffffffffffff163373ffffffffffffffffffffffffffffffffffffffff167f33fa1e736afd93ed8bbdb8ca6ffc74ddcb4f0dbb1e59853da11ef7ae089a64ad600360000160003373ffffffffffffffffffffffffffffffffffffffff1673ffffffffffffffffffffffffffffffffffffffff16815260200190815260200160002054600360000160008773ffffffffffffffffffffffffffffffffffffffff1673ffffffffffffffffffffffffffffffffffffffff1681526020019081526020016000205460036001015460405180848152602001838152602001828152602001935050505060405180910390a3505050505050505050505050565b600080600060028110151561213b57fe5b0160009054906101000a900473ffffffffffffffffffffffffffffffffffffffff1673ffffffffffffffffffffffffffffffffffffffff168273ffffffffffffffffffffffffffffffffffffffff1614156121c957600060016002811015156121a057fe5b0160009054906101000a900473ffffffffffffffffffffffffffffffffffffffff16905061226b565b600060016002811015156121d957fe5b0160009054906101000a900473ffffffffffffffffffffffffffffffffffffffff1673ffffffffffffffffffffffffffffffffffffffff168273ffffffffffffffffffffffffffffffffffffffff1614156122665760008060028110151561223d57fe5b0160009054906101000a900473ffffffffffffffffffffffffffffffffffffffff16905061226b565b600090505b919050565b60008686868686866040518087600260200280838360005b838110156122a3578082015181840152602081019050612288565b5050505090500186600260200280838360005b838110156122d15780820151818401526020810190506122b6565b50505050905001858051906020019060200280838360005b838110156123045780820151818401526020810190506122e9565b50505050905001848051906020019060200280838360005b8381101561233757808201518184015260208101905061231c565b50505050905001838051906020019060200280838360005b8381101561236a57808201518184015260208101905061234f565b50505050905001828051906020019060200280838360005b8381101561239d578082015181840152602081019050612382565b505050509050019650505050505050604051809103902090509695505050505050565b600085858585856040518086600260200280838360005b838110156123f25780820151818401526020810190506123d7565b5050505090500185600260200280838360005b83811015612420578082015181840152602081019050612405565b50505050905001848051906020019060200280838360005b83811015612453578082015181840152602081019050612438565b50505050905001838051906020019060200280838360005b8381101561248657808201518184015260208101905061246b565b50505050905001828051906020019060200280838360005b838110156124b957808201518184015260208101905061249e565b50505050905001955050505050506040518091039020905095945050505050565b60006040805190810160405280601c81526020017f19457468657265756d205369676e6564204d6573736167653a0a333200000000815250826040518083805190602001908083835b6020831015156125485780518252602082019150602081019050602083039250612523565b6001836020036101000a03801982511681845116808217855250505050505090500182600019166000191681526020019250505060405180910390209050919050565b60008573ffffffffffffffffffffffffffffffffffffffff166125b086868686612b07565b73ffffffffffffffffffffffffffffffffffffffff1614905095945050505050565b6000606060008060008092505b89518360ff1610156126fc5760006001028a8460ff1681518110151561260157fe5b90602001906020020151600019161415801561265757506126568a8460ff1681518110151561262c57fe5b90602001906020020151898560ff1681518110151561264757fe5b90602001906020020151612b94565b5b156126ef57600554868460ff1681518110151561267057fe5b90602001906020020151111580156126a25750868360ff1681518110151561269457fe5b906020019060200201514210155b156126ee57858360ff168151811015156126b857fe5b90602001906020020151850194506001848460ff168151811015156126d957fe5b90602001906020020190151590811515815250505b5b82806001019350506125df565b8291505b88518360ff16018260ff1610156128265760006001028984840360ff1681518110151561272957fe5b90602001906020020151600019161415801561278157506127808984840360ff1681518110151561275657fe5b90602001906020020151898460ff1681518110151561277157fe5b90602001906020020151612b94565b5b1561281957600554868360ff1681518110151561279a57fe5b90602001906020020151111580156127cc5750868260ff168151811015156127be57fe5b906020019060200201514210155b1561281857858260ff168151811015156127e257fe5b90602001906020020151850194506001848360ff1681518110151561280357fe5b90602001906020020190151590811515815250505b5b8180600101925050612700565b6000851215156128685760008060028110151561283f57fe5b0160009054906101000a900473ffffffffffffffffffffffffffffffffffffffff1690506128a5565b84600202850394506000600160028110151561288057fe5b0160009054906101000a900473ffffffffffffffffffffffffffffffffffffffff1690505b6000851315612afb57600360000160008273ffffffffffffffffffffffffffffffffffffffff1673ffffffffffffffffffffffffffffffffffffffff1681526020019081526020016000205485111515156128ff57600080fd5b84600360000160008373ffffffffffffffffffffffffffffffffffffffff1673ffffffffffffffffffffffffffffffffffffffff1681526020019081526020016000206000828254039250508190555084600360000160006129608461212a565b73ffffffffffffffffffffffffffffffffffffffff1673ffffffffffffffffffffffffffffffffffffffff168152602001908152602001600020600082825401925050819055507fcaf19ca912e783b16f7d6dd4ec920c898557f20d44fa3cffb5521a41ec7005618a8a8a876040518080602001806020018060200180602001858103855289818151815260200191508051906020019060200280838360005b83811015612a1b578082015181840152602081019050612a00565b50505050905001858103845288818151815260200191508051906020019060200280838360005b83811015612a5d578082015181840152602081019050612a42565b50505050905001858103835287818151815260200191508051906020019060200280838360005b83811015612a9f578082015181840152602081019050612a84565b50505050905001858103825286818151815260200191508051906020019060200280838360005b83811015612ae1578082015181840152602081019050612ac6565b505050509050019850505050505050505060405180910390a15b50505050505050505050565b6000600185858585604051600081526020016040526040518085600019166000191681526020018460ff1660ff1681526020018360001916600019168152602001826000191660001916815260200194505050505060206040516020810390808403906000865af1158015612b80573d6000803e3d6000fd5b505050602060405103519050949350505050565b60008160001916612ba484612bb1565b6000191614905092915050565b60008160405180826000191660001916815260200191505060405180910390209050919050565b60408051908101604052806002906020820280388339808201915050905050905600a165627a7a72305820d9c5f084914dcf521aec8ba3967db2488a4fb3b653efd3a8af8a1f965221510e0029a165627a7a72305820517a87363fa59ca71698b2e73fed20c8ea33c34b0bed2d6670ad74eb41aaf4e20029",
  "source": "pragma solidity ^0.4.23;\r\n\r\nimport \"./ChannelExtensionV2.sol\";\r\nimport \"./Ownable.sol\";\r\n\r\ncontract Factory is Ownable{\r\n    \r\n    address[] public channels;\r\n    \r\n    event channelProcessed(address indexed ContractAddrs, address indexed NearEnd, address indexed FarEnd,\r\n    uint256[2] value, uint256 id, uint256 endDate);\r\n    \r\n    constructor () public Ownable() {}\r\n    \r\n    function createChannel(address _farEnd, uint _daysOpen) public payable {\r\n        Channel channel = (new Channel).value(msg.value)(msg.sender, _farEnd, _daysOpen);\r\n        channels.push(channel);\r\n        emit channelProcessed(channel, msg.sender, _farEnd, channel.getStateValues(), channel.getStateId(), channel.channelEnd());\r\n    }\r\n    \r\n    function suicideContract() public onlyOwner() {\r\n        selfdestruct(owner);\r\n    }\r\n}",
  "sourcePath": "C:\\Users\\sroldanl\\Documents\\TFG\\tests\\contracts\\Factory.sol",
  "compiler": {
    "name": "solc",
    "version": "0.4.23+commit.124ca40d.Emscripten.clang"
  },
  "schemaVersion": "2.0.0",
  "updatedAt": "2018-05-14T15:10:55.773Z"
}