{
  "contractName": "Test",
  "abi": [
    {
      "constant": true,
      "inputs": [],
      "name": "str",
      "outputs": [
        {
          "name": "",
          "type": "int256"
        }
      ],
      "payable": false,
      "stateMutability": "view",
      "type": "function"
    },
    {
      "anonymous": false,
      "inputs": [
        {
          "indexed": false,
          "name": "neg",
          "type": "int256"
        }
      ],
      "name": "addNeg",
      "type": "event"
    },
    {
      "anonymous": false,
      "inputs": [
        {
          "indexed": false,
          "name": "hash",
          "type": "bytes32"
        },
        {
          "indexed": false,
          "name": "expected",
          "type": "bytes32"
        },
        {
          "indexed": false,
          "name": "compare",
          "type": "bool"
        }
      ],
      "name": "comHash",
      "type": "event"
    },
    {
      "anonymous": false,
      "inputs": [
        {
          "indexed": false,
          "name": "keck",
          "type": "bytes32"
        }
      ],
      "name": "kec",
      "type": "event"
    },
    {
      "anonymous": false,
      "inputs": [
        {
          "indexed": false,
          "name": "first",
          "type": "bytes32"
        }
      ],
      "name": "double",
      "type": "event"
    },
    {
      "constant": false,
      "inputs": [
        {
          "name": "first",
          "type": "int256"
        },
        {
          "name": "second",
          "type": "int256"
        }
      ],
      "name": "addNegatives",
      "outputs": [],
      "payable": false,
      "stateMutability": "nonpayable",
      "type": "function"
    },
    {
      "constant": false,
      "inputs": [
        {
          "name": "_str",
          "type": "int256"
        }
      ],
      "name": "storeNegatives",
      "outputs": [],
      "payable": false,
      "stateMutability": "nonpayable",
      "type": "function"
    },
    {
      "constant": false,
      "inputs": [
        {
          "name": "_values_id",
          "type": "uint256[2]"
        },
        {
          "name": "_end_chann",
          "type": "address[2]"
        },
        {
          "name": "_msgHash",
          "type": "bytes32"
        },
        {
          "name": "_hs",
          "type": "bytes32[]"
        },
        {
          "name": "_ttls",
          "type": "uint256[]"
        },
        {
          "name": "_rhValues",
          "type": "int256[]"
        }
      ],
      "name": "testing1",
      "outputs": [],
      "payable": false,
      "stateMutability": "nonpayable",
      "type": "function"
    },
    {
      "constant": false,
      "inputs": [
        {
          "name": "_values",
          "type": "uint256"
        },
        {
          "name": "_id",
          "type": "uint256"
        },
        {
          "name": "_end",
          "type": "address"
        },
        {
          "name": "_chann",
          "type": "address"
        },
        {
          "name": "_msgHash",
          "type": "bytes32"
        }
      ],
      "name": "testing2",
      "outputs": [],
      "payable": false,
      "stateMutability": "nonpayable",
      "type": "function"
    },
    {
      "constant": false,
      "inputs": [
        {
          "name": "lsls",
          "type": "bytes32"
        }
      ],
      "name": "computezsaHash",
      "outputs": [],
      "payable": false,
      "stateMutability": "nonpayable",
      "type": "function"
    },
    {
      "constant": false,
      "inputs": [
        {
          "name": "sad",
          "type": "uint256[]"
        },
        {
          "name": "ad",
          "type": "address[]"
        },
        {
          "name": "by",
          "type": "bytes32"
        }
      ],
      "name": "asdf",
      "outputs": [],
      "payable": false,
      "stateMutability": "nonpayable",
      "type": "function"
    }
  ],
  "bytecode": "0x608060405234801561001057600080fd5b50610844806100206000396000f300608060405260043610610083576000357c0100000000000000000000000000000000000000000000000000000000900463ffffffff16806325aaee64146100885780637698e0c7146100b957806387c8ae04146100e6578063a6cca0121461016b578063c15bae84146102c3578063dff83d56146102ee578063e6ce9268146103a5575b600080fd5b34801561009457600080fd5b506100b760048036038101908080356000191690602001909291905050506103dc565b005b3480156100c557600080fd5b506100e46004803603810190808035906020019092919050505061043b565b005b3480156100f257600080fd5b506101696004803603810190808035906020019092919080359060200190929190803573ffffffffffffffffffffffffffffffffffffffff169060200190929190803573ffffffffffffffffffffffffffffffffffffffff1690602001909291908035600019169060200190929190505050610445565b005b34801561017757600080fd5b506102c16004803603810190808060400190600280602002604051908101604052809291908260026020028082843782019150505050509192919290806040019060028060200260405190810160405280929190826002602002808284378201915050505050919291929080356000191690602001909291908035906020019082018035906020019080806020026020016040519081016040528093929190818152602001838360200280828437820191505050505050919291929080359060200190820180359060200190808060200260200160405190810160405280939291908181526020018383602002808284378201915050505050509192919290803590602001908201803590602001908080602002602001604051908101604052809392919081815260200183836020028082843782019150505050505091929192905050506104c2565b005b3480156102cf57600080fd5b506102d8610541565b6040518082815260200191505060405180910390f35b3480156102fa57600080fd5b506103a360048036038101908080359060200190820180359060200190808060200260200160405190810160405280939291908181526020018383602002808284378201915050505050509192919290803590602001908201803590602001908080602002602001604051908101604052809392919081815260200183836020028082843782019150505050505091929192908035600019169060200190929190505050610547565b005b3480156103b157600080fd5b506103da6004803603810190808035906020019092919080359060200190929190505050610612565b005b7f7781c8098806609a6fb442dfd549f907048db7ad2f95baf108914ed18fc5500a81604051808260001916600019168152602001915050604051809103902060405180826000191660001916815260200191505060405180910390a150565b8060008190555050565b60006104538686868661064e565b90507fb8b9bd784597e7cb2d0248741988a83cb24146a6b69ce28c2a8801844fd202b981838460001916846000191614604051808460001916600019168152602001836000191660001916815260200182151515158152602001935050505060405180910390a1505050505050565b60006104d187878686866106fe565b90507fb8b9bd784597e7cb2d0248741988a83cb24146a6b69ce28c2a8801844fd202b981868760001916846000191614604051808460001916600019168152602001836000191660001916815260200182151515158152602001935050505060405180910390a150505050505050565b60005481565b7f7426b43bd354d4ea9e59e51ac5ff75caf814922b0c63b85ff3a18c1dc4ad644183838360405180848051906020019060200280838360005b8381101561059b578082015181840152602081019050610580565b50505050905001838051906020019060200280838360005b838110156105ce5780820151818401526020810190506105b3565b5050505090500182600019166000191681526020019350505050604051809103902060405180826000191660001916815260200191505060405180910390a1505050565b7e1b3a5b5731919adefacae3e0b01b99e53889f487b82814bfa705278b76d4898183016040518082815260200191505060405180910390a15050565b600084848484604051808581526020018481526020018373ffffffffffffffffffffffffffffffffffffffff1673ffffffffffffffffffffffffffffffffffffffff166c010000000000000000000000000281526014018273ffffffffffffffffffffffffffffffffffffffff1673ffffffffffffffffffffffffffffffffffffffff166c0100000000000000000000000002815260140194505050505060405180910390209050949350505050565b600085858585856040518086600260200280838360005b83811015610730578082015181840152602081019050610715565b5050505090500185600260200280838360005b8381101561075e578082015181840152602081019050610743565b50505050905001848051906020019060200280838360005b83811015610791578082015181840152602081019050610776565b50505050905001838051906020019060200280838360005b838110156107c45780820151818401526020810190506107a9565b50505050905001828051906020019060200280838360005b838110156107f75780820151818401526020810190506107dc565b505050509050019550505050505060405180910390209050959450505050505600a165627a7a72305820d0f4efcdb48e0d46b83be76b79c9b93dc54fda76d25e345f6232a162ad6cf4630029",
  "source": "pragma solidity ^0.4.21;\r\nimport \"./CryptoHandler.sol\";\r\n\r\ncontract Test is CryptoHandler {\r\n    \r\n    event addNeg(int neg);\r\n    event comHash(bytes32 hash, bytes32 expected, bool compare);\r\n    event kec(bytes32 keck);\r\n    event double(bytes32 first);\r\n\r\n    int public str;\r\n    \r\n    function addNegatives(int first, int second) public {\r\n        emit addNeg(first + second);\r\n    }\r\n\r\n    function storeNegatives(int _str) public {\r\n        str = _str;\r\n    }\r\n    \r\n    function testing1(uint256[2] _values_id, address[2] _end_chann, bytes32 _msgHash, bytes32[] _hs, uint256[] _ttls, int256[] _rhValues) public {\r\n        bytes32 msgHash = computeHash(_values_id, _end_chann, _hs, _ttls, _rhValues);\r\n        emit comHash(msgHash, _msgHash, (msgHash == _msgHash));\r\n    }\r\n    \r\n    function testing2(uint256 _values, uint256 _id, address _end, address _chann, bytes32 _msgHash) public {\r\n        bytes32 msgHash = computeHash(_values, _id, _end, _chann);\r\n        emit comHash(msgHash, _msgHash, (msgHash == _msgHash));\r\n    }\r\n    \r\n    function computeHash(uint256 _values, uint256 _id, address _end, address _chann) internal pure returns (bytes32) {\r\n        return keccak256(_values, _id, _end, _chann);\r\n    }\r\n    \r\n    function computezsaHash(bytes32 lsls) public {\r\n        emit kec(keccak256(lsls));\r\n    }\r\n    \r\n    function asdf(uint256[] sad, address[] ad, bytes32 by) public {\r\n        emit double(keccak256(sad, ad, by));\r\n    }\r\n}",
  "sourcePath": "C:\\Users\\sroldanl\\Documents\\TFG\\tests\\contracts\\Test.sol",
  "compiler": {
    "name": "solc",
    "version": "0.4.23+commit.124ca40d.Emscripten.clang"
  },
  "schemaVersion": "2.0.0",
  "updatedAt": "2018-05-14T15:08:30.169Z"
}